:020000040800F2
:10000000A0050020DD010008BF2100081718000826
:10001000BD21000881080008E1230008000000005D
:10002000000000000000000000000000C3210008E4
:100030008308000800000000C1210008C521000855
:10004000F7010008F7010008F7010008F7010008B0
:10005000F7010008F7010008F7010008F7010008A0
:10006000F7010008F7010008F7010008F701000890
:10007000F7010008F7010008F7010008F701000880
:10008000F7010008F7010008F7010008F701000870
:10009000F7010008F7010008F7010008F701000860
:1000A000F7010008F7010008F7010008F701000850
:1000B000F7010008F7010008F7010008F701000840
:1000C000F7010008F7010008F7010008F701000830
:1000D000F7010008F7010008F7010008F701000820
:1000E000F7010008F7010008F7010008F701000810
:1000F000F7010008F7010008F7010008F701000800
:10010000F7010008F7010008F7010008F7010008EF
:10011000F7010008F7010008F7010008F7010008DF
:10012000F7010008F7010008F7010008F7010008CF
:10013000F70100080000000000000000F7010008BF
:10014000F7010008F7010008F7010008F7010008AF
:10015000F7010008F7010008F7010008F70100089F
:10016000F7010008F7010008F7010008F70100088F
:10017000F7010008F7010008F7010008000000007F
:1001800000000000F701000800000000000000006F
:10019000F70100080000000000000000F70100085F
:1001A000000000000000000000000000F70100084F
:1001B000F7010008F7010008F7010008F70100083F
:1001C000F7010008DFF810D000F048FB00480047B6
:1001D000F1330008AFF30080A005002006488047F7
:1001E00006480047FEE7FEE7FEE7FEE7FEE7FEE71C
:1001F000FEE7FEE7FEE7FEE761220008C501000812
:100200002DE9F05F0546002092469B46884606464B
:10021000814640241BE0284641464746224600F0DE
:1002200034FA53465A46C01A914110D31146184623
:10023000224600F01BFA2D1A67EB01084F462246B2
:100240000120002100F012FA17EB00094E41201E98
:10025000A4F10104DFDC484631462A464346BDE8A6
:10026000F09FD2B201E000F8012B491EFBD270478B
:100270000022F6E710B513460A4604461946FFF772
:10028000F0FF204610BD421C10F8011B0029FBD1D5
:10029000801A70472DE9FE4F804681EA0300C00FA7
:1002A0000C46009021F0004123F00045B8EB02001D
:1002B000A94105D24046214690461C460B460246BF
:1002C00023F00040104347D0270DC7F30A00C3F3C3
:1002D0000A510290401A019040286BDAC3F31300D0
:1002E00040F4801B0098924620B10023D2EB030A11
:1002F00063EB0B0B01985946C0F14002504600F0E9
:10030000B5F906460D4650465946019A00F0CDF91A
:1003100010EB08006141002487EA115284EAE77378
:100320001A4340D0009A62B3019A012A4FEA075259
:1003300015DC001B61EB02014FF0004202EA07529C
:10034000CDE90042001C41F5801132462B4600F0F9
:10035000CDF903B0BDE8F08F40462146F9E7001B18
:1003600061EB0201001C41F5801300185B4120186D
:10037000A2F5001747EB030140EAD570B6196D41AD
:1003800011E06D084FEA360645EAC0754FEA07529C
:10039000001B61EB0201001C41F5801149084FEA86
:1003A00030000019514132462B4603B0BDE8F04FF2
:1003B00000F08DB90098012240000023D0EB02022A
:1003C00063EBE073009821464FEAE074B8EB00005D
:1003D00061EB0401E9E783F000435BE781F0004152
:1003E00058E72DE9FE4F81EA030404F0004421F0B0
:1003F000004100944FF0000B23F0004350EA010449
:100400005ED052EA03045BD0C3F30A54C1F30A5529
:100410002C44A4F2F3340194A0FB0254C1F3130161
:1004200041F48011C3F3130343F4801301FB02442E
:1004300000FB034E840A970A44EA815447EA835733
:10044000A4FB076802958D0A05FB07854FEA932CEC
:1004500004FB0C542705029D4FEA065847EA16375D
:10046000B5EB08056EEB070C870E920E47EA811775
:1004700042EA8312A7FB0201B6EB0B0164EB000416
:100480002B0D43EA0C335E1844EB1C50DA46514600
:10049000E7FB0201C5F313044FEA0B3343EA14539D
:1004A0004FEA0432019C43EA0603A4F10C040294CF
:1004B000009CCDE900B400F019F903B0BDE8F08F5D
:1004C00000200146F9E72DE9F04D81EA030404F02C
:1004D000004B21F0004514464FF0000A23F0004184
:1004E00050EA050220D054EA01021DD0C5F30A5794
:1004F0000246C5F31303C1F31300C1F30A5640F4D7
:10050000801543F48013A7EB0608101BD64608F2AB
:10051000FD3873EB050002D308F1010801E09218E1
:100520005B41B8F1000F03DA00200146BDE8F08D11
:1005300000204FF48011064684460EE0171B73EB33
:10054000050705D3121B63EB050306434CEA010CB8
:1005500049084FEA300092185B4150EA0107EDD19B
:1005600052EA030012D082EA040083EA050108433C
:1005700005D0101BAB4106D20122002306E0002269
:100580004FF0004302E06FF0010253101AEB060037
:100590004CEB085110EB0A0041EB0B01BDE8F04DAC
:1005A00000F095B80EB5C10F80EAE0700844CA07A4
:1005B000002140F233438DE80E000A460B4600F05E
:1005C00095F803B000BD0EB540F233410291002111
:1005D000CDE900110A460B4600F088F803B000BDD3
:1005E00030B5041E71F1000404DB4FF000444042BA
:1005F00064EB0101141E73F1000405DB1C464FF08F
:100600000043524263EB04038B4208BF824230BD79
:1006100030B5041E71F1000404DB4FF00044404289
:1006200064EB0101141E73F1000405DB1C464FF05E
:100630000043524263EB0403994208BF904230BD2D
:1006400030B50B46014600202022012409E021FAA2
:1006500002F59D4205D303FA02F5491B04FA02F59F
:100660002844151EA2F10102F1DC30BD202A04DB72
:10067000203A00FA02F1002070479140C2F12003B5
:1006800020FA03F3194390407047202A04DB203AF4
:1006900021FA02F00021704721FA02F3D040C2F1A2
:1006A00020029140084319467047202A06DBCB17E9
:1006B000203A41FA02F043EAE07306E041FA02F31D
:1006C000D040C2F12002914008431946704710B54E
:1006D000141E73F1000408DA401C41F10001921865
:1006E0005B411A4301D120F0010010BD2DE9F04D0E
:1006F00092469B4611B1B1FA81F202E0B0FA80F263
:1007000020329046FFF7B2FF04460F4640EA0A0047
:1007100041EA0B0153465A46084313D0114653EAA7
:10072000010019D0C8F140025046FFF7AEFF054660
:100730000E46504659464246FFF798FF084305D0FB
:10074000012004E020463946BDE8F08D0020054335
:1007500046EAE0762C4337430A986305E40AA0EBA7
:1007600008000022FD0A44EA47540A3002D500205E
:100770000146E9E7010510196941DDE9084500195D
:100780006941BDE8F04DA2E72DE9F04D00231A467E
:100790001B1A8A4103DB00200146BDE8F08DC1F33E
:1007A0000A52C1F3130141F480154FF0000BD10739
:1007B00002D100186D41521E0027044640F2FF117D
:1007C000384601EB620A3E468046024600204FF45E
:1007D0008011FFF75AFFC2197141BB1846EB0100A7
:1007E000B4EB030C75EB000C04D3E41A65EB0005C5
:1007F00017460E46241908F101006D418046342841
:10080000E3DDF91946EB0600091BA84103D24FF0BE
:10081000FF32134601E0002213461BEB070046EBB4
:100820000A51BDE8F04DFFF752BFC1F30A52C1F3C0
:10083000130140F2FF3341F480119A4202DA0020A2
:100840000146704740F233439A42A2F2334202DC3F
:100850005242FFF71ABFFFF709BF0000064C074DD1
:1008600006E0E06840F0010394E807009847103480
:10087000AC42F6D3FFF7AAFC80350008A03500088B
:10088000FEE7704770B5044600F002F90546601CAB
:1008900002D004480078044400F0FAF8401BA0425B
:1008A000FAD370BD980000202DE9F84FDFF8ACA115
:1008B000002201240AF1040B03254FF00F090BF16C
:1008C000040E00BF0B6804FA02F63340B34272D143
:1008D0000F7907F00307012F01D0022F16D1876887
:1008E0004FEA420805FA08FC27EA0C07D1F80CC0C9
:1008F0000CFA08FC4CEA070CC0F808C04768B7437C
:100900000E79C6F3001696403E4346600E79F643D4
:10091000B6070AD0C6684FEA420C05FA0CF7BE4388
:100920008F6807FA0CF73743C7600E7906F00306A5
:10093000022E10D1D60800EB8608D8F820605707A1
:100940004FEAD76C09FA0CF7BE430F6907FA0CF7A8
:100950003743C8F8207006684FEA420C05FA0CF7D6
:10096000BE430F7907F0030707FA0CF73743076018
:100970004E68F6006BD53A4E376847F480473760CB
:10098000366822F0030706F480460096354E07EBE2
:10099000060CDCF8086897074FEA177809FA08F799
:1009A000BE43314FB84201D100271FE02F4FB8425C
:1009B00002D101271AE04AE02D4FB84201D10227A7
:1009C00014E02C4FB84201D103270FE02A4FB84260
:1009D00001D104270AE0294FB84201D1052705E0DB
:1009E000274FB84201D1062700E0072707FA08F78A
:1009F0003743CCF80878DAF800605746D1F804C0DD
:100A00009E435FEACC3C00D51E433E60DBF80060AD
:100A10005F46D1F804C09E435FEA8C3C00D51E437C
:100A20003E60DEF800607746D1F804C09E435FEA7E
:100A3000CC2C00D51E433E60084F0C373E68D1F8E1
:100A400004C09E435FEA8C2C00D51E433E60521CBE
:100A5000102AFFF437AFBDE8F88F0000003C0140DA
:100A600044380240003001400000024000040240CF
:100A700000080240000C0240001002400014024036
:100A8000001802400AB1816170470904FBE70000C9
:100A900001488068704700009800002070B504008D
:100AA00025D094F83D00002520B984F83C5020461C
:100AB00000F04CFA242084F83D002068016821F001
:100AC000010101602068016841F400410160206873
:100AD000016821F40041016000F094FB4D4A616817
:100AE000914201D84C4900E04C49884201D2012092
:100AF00070BD4B492368B0FBF1F15E6826F03F06FC
:100B00000E435E606368934206D94FF4967359436F
:100B10004FF47A73B1FBF3F12368491C1E6A26F087
:100B20003F06314319626168914210D84900401E66
:100B3000B0FBF1F2521CC2F30B02042A01D20420D2
:100B400022E0B0FBF1F0401CC0F30B001CE0A268F7
:100B5000F2B301EBC10303EB0116431EB3FBF6F343
:100B60005B1C43F480431B0549D092B301EBC102E7
:100B700002EB0111401EB0FBF1F0401CC0F30B0072
:100B800040F4804040F400402168CA694CF6FF738D
:100B90009A431043C861D4E90710014320680268F2
:100BA00022F0C00211430160D4E90301014320682F
:100BB000826848F2FF339A4311438160D4E905010A
:100BC00008432168CA6822F0FF021043C86001E0B0
:100BD0000EE016E02068016841F001010160256423
:100BE000202084F83D00256384F83E50002070BD2D
:100BF00001EB4106431EB3FBF6F35B1CB3E7012098
:100C0000C2E701EB4101401EB0FBF1F0401CC0F314
:100C10000B00B7E7A086010080841E0000093D009C
:100C200040420F002DE9FF4F83B09A46DDE911974E
:100C300093460446DDF84080FFF72AFF054694F806
:100C40003D00202870D119230122714920460095CA
:100C500000F0F2FE0028F5D194F83C00012863D0A2
:100C6000012084F83C0020680168C90703D10168AD
:100C700041F0010101602068016821F40061016018
:100C8000222084F83D00402084F83E00002626649F
:100C9000C4F82480A4F82A90608D20855D48E06225
:100CA000CDE9007553465A462046049900F0CCFD24
:100CB00000287CD1208DD0B1012821D002282068C5
:100CC00024D0416980690090208D032869D80128CB
:100CD0002BD0514902283B464FF00002009559D0D5
:100CE0008846204600F0A8FE002860D13CE020683D
:100CF000416981690091016841F40071016077E008
:100D00002068016821F480610160F0E7016821F446
:100D1000806101602068016841F400610160206821
:100D200041698069009063E06FE02A4639462046B9
:100D300000F001FF98BB20680069616A08704EE00E
:100D40002068016841F40071016020680069616AEF
:100D50000870606A401C6062218D491E2185618D8A
:100D6000491E6185216838E02068016821F48061AE
:100D7000016020680069616A0870606A401C6062F6
:100D8000208D401E2085608D401E60853B460022E0
:100D900041460095204600F04FFE00B9D0E706E03E
:100DA000FFE72A463946204600F0C5FE18B101206B
:100DB00007B0BDE8F08F20680069616A0870606A5A
:100DC000401C6062218D491E2185618D491E61850F
:100DD00021684A69D24352070AD409690170606ADE
:100DE000401C6062208D401E2085608D401E608505
:100DF000208D00287FF468AF202084F83D0084F81F
:100E00003E6084F83C600020D2E70220D0E700007A
:100E1000020010000000FFFF040001002DE9FF4F59
:100E200083B09A46DDE9119793460446DDF8408089
:100E3000FFF72EFE054694F83D0020287FD11923A8
:100E4000012240492046009500F0F6FD002876D1A9
:100E500094F83C00012872D0012084F83C002068FE
:100E60000168C90703D1016841F0010101602068F0
:100E7000016821F400610160212084F83D004020D8
:100E800084F83E0000262664C4F82480A4F82A9042
:100E9000608D20852C48E062CDE9007553465A46A6
:100EA0002046049900F04EFD70B930E02A463946DC
:100EB000204600F073FE58B1206C042804D120684D
:100EC000016841F400710160012007B0BDE8F08FB6
:100ED000606A216800780861606A401C6062218D48
:100EE000491E89B22185628D521E6285226853692E
:100EF000DB435B070BD469B100781061606A401C6A
:100F00006062208D401E2085608D401E6085208D92
:100F10000028CBD12A463946204600F067FD00283C
:100F2000CAD154F83D0B016841F4007101602020E2
:100F300004F81E09E67766770020C6E7FFE702207F
:100F4000C3E70000020010000000FFFF10B586B0EC
:100F5000044614216846FFF78BF91349206888423C
:100F600020D11248016841F0020101600068694621
:100F700000F002000590C020009012200190012096
:100F8000029003200390042004900948FFF78CFC92
:100F900006481030016841F400110160006800F457
:100FA0000010059006B010BD0054004030380240DB
:100FB0000004024002488168027811448160704751
:100FC000980000200B4810B5016841F400710160E1
:100FD000016841F480610160016841F48071016041
:100FE000032000F063F8002000F006F800F024F879
:100FF000002010BD003C024070B50D4D04464FF47A
:101000007A712878B1FBF0F00A490968B1FBF0F079
:1010100000F02EFB48B9102C07D200222146501EAA
:1010200000F024F800206C6070BD012070BD00004D
:1010300098000020A40000200B4882B0016841F411
:1010400080410160006800F4804000900648001F65
:10105000016841F080510160006800F0805000900C
:10106000072002B000F022B844380240F0B40E4B22
:101070001B680C46C3F30223C3F10705042D00D9F6
:101080000425191D072901D2002300E0DB1E0126DB
:1010900006FA05F1491E214099409E40761E1640F1
:1010A0003143F0BC01F0CAB90CED00E0064900F094
:1010B000070208684FF6FF03184040EA0220034A7F
:1010C00010430860704700000CED00E00000FA05D6
:1010D0002DE9F0470E46050065D0DFF81481D8F8F9
:1010E0000000F7B200F00F00B04207D288F800709D
:1010F000D8F8000000F00F00B04254D128683D4CF1
:10110000810712D5400703D5206840F4E0502060E5
:101110002878000703D5206840F4604020602068EC
:10112000A96820F0F000084320602878C0072DD07F
:10113000304968680839012812D0022813D00328E2
:1011400011D00968890700292DDA216821F00301EF
:1011500001432160FFF79CFC814641F2883A0EE092
:1011600009688903EFE709688901ECE7FFF790FC5C
:10117000A0EB0901514502D90320BDE8F0872068A2
:10118000696800F00C00B0EB810FEFD1D8F80010C7
:10119000404601F00F01B14207D90770006800F026
:1011A0000F00B04201D00120E7E72878400705D5BD
:1011B0002068E96820F4E0500843206028780007A0
:1011C00006D52068296920F4604040EAC10020600B
:1011D00000F038F82168084AC1F30311515CC84097
:1011E0000649086006480068FFF706FF0020C4E7CC
:1011F000003C024008380240C8340008A400002027
:101200009C0000200448054900680968044AC1F3AD
:101210008221515CC8407047A40000200838024079
:10122000D83400080448054900680968044AC1F335
:101230004231515CC8407047A40000200838024089
:10124000D8340008224810B5006810F00C0221487C
:1012500015D04110042A11D01D4C241F082A0FD08C
:101260000C2A0CD12268236802F03F025B0221D5D0
:101270002068C0F38810A0FB010120E0084610BDE3
:101280002268236802F03F025B0205D52068C0F3A4
:101290008810A0FB010104E02168C1F38811A1FBC3
:1012A00000010023FEF7ACFF2168C1F30141491C96
:1012B00049000AE02168C1F38811A1FB0001002365
:1012C000FEF79EFF2168C1F30271B0FBF1F010BD83
:1012D000083802400024F4002DE9F84F04007DD0C6
:1012E000DFF878B32078ABF10407C007A7F1040555
:1012F00050D0DBF800105846C1F3810101290FD00E
:101300000168C1F38101022902D13968490207D479
:101310000068C0F38100032809D13868400206D56F
:101320002868800336D560680028D8D032E060682D
:10133000B0F5803F10D0B0F5A02F286810D020F471
:1013400080302860286820F4802028606068A0B180
:10135000FFF79EFB06460CE0286840F48030F4E777
:1013600040F480202860F7E7FFF792FB801B642899
:1013700076D828688003F7D50CE0FFF789FB06468E
:1013800005E000BFFFF784FB801B6428F0D82868C5
:101390008003F7D42078DFF8C89280074FF0000A66
:1013A00044D5DBF80010584611F00C0F0FD001683F
:1013B000C1F38101022902D13968490207D50068C9
:1013C000C0F3810003280AD13868400207D4286896
:1013D000800715D5E068012800D111E03AE1E06806
:1013E000B0B10120C9F80000FFF752FB064604E047
:1013F000FFF74EFB801B0228BAD828688007F7D574
:101400002868216920F0F80040EAC10028600DE05A
:10141000C9F800A0FFF73CFB064604E0FFF738FBE5
:10142000801B02281CD828688007F7D42078000782
:1014300027D5DFF828828B48616908F16C0881B1F3
:1014400001210160FFF724FB064604E0FFF720FBC3
:10145000801B022804D8D8F800008007F6D510E0D9
:1014600089E0C0F800A0FFF713FB064605E000BFC7
:10147000FFF70EFB801B02287DD8D8F800008007FC
:10148000F6D42078400769D574484FF0000838300A
:101490000068C0000BD471483830016841F08051B9
:1014A000016000684FF0010800F0805000906E4E1F
:1014B0003068C00511D4306840F480703060FFF7A8
:1014C000E7FA009006E000BFFFF7E2FA0099401A41
:1014D000022850D83068C005F6D5604EA06868363E
:1014E00001280FD00528306810D020F001003060AE
:1014F000306820F004003060A068B8B1FFF7C8FA87
:1015000000900FE0306840F00100F4E740F0040084
:101510003060F7E7FFF7BCFA0099411A41F28830D2
:10152000814264D830688007F4D50EE0FFF7B0FA46
:10153000009007E0FFF7ACFA0099411A41F28830B9
:10154000814254D830688007F4D4B8F1000F05D038
:1015500042483830016821F080510160A069A8B389
:10156000DBF80010C1F38101022947D00228C9F835
:1015700060A005D000E03AE0FFF78AFA044639E0BF
:10158000FFF786FA064604E0FFF782FA801B02287E
:101590002DD828688001F7D4F4E907010843E168F1
:1015A000324A490802EB0141A26841EA821108432C
:1015B000217C40EA0160217D40EA01703860012011
:1015C000C9F86000FFF764FA044606E044E000BF93
:1015D000FFF75EFA001B022809D828688001F7D5BA
:1015E0003AE000BFFFF754FA001B022802D903209B
:1015F000BDE8F88F28688001F4D42DE00128F7D0E9
:101600003868E26900F48001914223D1226A00F037
:101610003F0191421ED147F6C071626A0140B1EBB1
:10162000821F17D1A26A4FF0FF3300F4403103EB61
:101630005202B1EB024F0DD194F82C2000F07061F2
:10164000B1EB026F06D194F8301000F0E040B0EB3F
:10165000017F01D00120CBE70020C9E70838024014
:1016600000004742800E4742007000400000FFFF2C
:1016700010B5401EB0F1807F01D3012010BD4FF0A6
:10168000E02460610F21601700F0D8FE0020A06107
:1016900007202061002010BD70B5040004D094F82C
:1016A0003D00002510B106E0012070BD84F83C50DB
:1016B000204600F023F8242084F83D002068C1680B
:1016C00021F40051C160204600F0D2FD206801697C
:1016D00021F4904101612068416921F02A014161B2
:1016E0002068C16841F40051C1602564202084F85D
:1016F0003D0084F83E00002070BD000010B586B0AB
:10170000044614216846FEF7B3FD13492068884259
:1017100020D112480021026842F4003202600068C1
:1017200000F4003005900D481038026842F00102C4
:101730000260006800F0010005900C20009002207B
:10174000CDE9010103200390072004906946044875
:10175000FFF7AAF806B010BD004400404038024030
:10176000000002402DE9F843044690F83D001F4672
:1017700016460D4620284CD1C5B1BEB194F83C00A8
:10178000012846D0012084F83C004FF00008C4F83E
:101790004080212084F83D00FFF77AF9A684814635
:1017A000E684A068B0F5805F03D004E00120BDE8C6
:1017B000F883206928B12E465FF0000584F83C804C
:1017C0000EE00026FAE78021204600F0D7FDA0B900
:1017D000AEB116F8010B21684860E08C401EE08431
:1017E000E08C4B464FF0000200970028EBD14FF001
:1017F0004001204600F0C2FD30B10320D7E735F8A4
:10180000020BC0F30800E6E7202084F83D0000202A
:10181000CDE70220CBE7FEE701684A69D2435205D3
:101820000FD46FF480624A61002140F8301F2022FB
:1018300042738173026942F0040202610173012064
:1018400070470020704700002DE9F84F04460068FB
:1018500089460B9D01689846174641F480610160F6
:101860002068016841F48071016000954FF0011B10
:101870000022594620460A9B00F0DEF84FF4007A19
:1018800040B120680068C00501D5C4F840A003201D
:10189000BDE8F88F216809F0FE0008612B46284951
:1018A00020460A9A00F0FCF8F0BB20684169806984
:1018B00000902A4620460A9900F070F940B1206C49
:1018C00004283AD12068016841F40071016034E0D5
:1018D000FEB2B8F1010F09D02168380A08612A4622
:1018E00020460A9900F05AF90028E8D120680661DC
:1018F0002A4620460A9900F051F90028DFD12068D5
:10190000016841F48071016000950022594620462B
:101910000A9B00F091F80028B3D1216809F0FF007C
:1019200040F00100086100E007E02B460449204632
:101930000A9A00F0B5F80028AAD00120A8E7000014
:10194000020001002DE9F843044600680D46DDE978
:10195000089701689846164641F4807101604B462D
:1019600000224FF001112046009700F065F848B1C1
:1019700020680068C00502D54FF400702064032081
:10198000BDE8F883216805F0FE0008613B464A4641
:101990001549204600F084F888B9206841698069BB
:1019A00000903A464946204600F0F8F848B1206CCD
:1019B000042804D12068016841F40071016001200D
:1019C000DEE7F5B2B8F1010F09D02168300A0861ED
:1019D0003A464946204600F0E1F80028E7D1206861
:1019E00005610020CCE700000200010070B516463A
:1019F0000D4604460DE02046FFF70EFF08B101201A
:101A000070BD681C05D0FFF743F8801BA84207D8BB
:101A100035B120684069C0434007ECD4002070BD58
:101A2000002044F8300F20216173A073216941F038
:101A3000200121612073E2E72DE9F0471E46904620
:101A40000D460446C1F30747DDF8209008E0701CFE
:101A500006D0FFF71DF8A0EB0900B0420FD876B111
:101A60002068012F18D0806925EA00000004000CCE
:101A700014D000214145EAD00020BDE8F0870020C5
:101A800044F8300F20216173A073216941F02001D7
:101A9000216120730120F0E74069E5E70121E9E7D2
:101AA0002DE9F0479A4691460E46044600254FF030
:101AB0002008C1F3074725E020684069C04340057E
:101AC00014D42068016841F40071016021686FF44A
:101AD00080604861256384F83D8084F83E50206C26
:101AE00040F00400206484F83C501FE0B9F1FF3F4F
:101AF00008D0FEF7CDFFA0EB0A0149450CD8B9F19B
:101B0000000F09D02068012F13D0806926EA000059
:101B10000004000C0BD0CFE744F8305F84F80D8050
:101B2000A573206940F02000206125730120BDE8E5
:101B3000F0874069EAE72DE9F041002590460E461E
:101B40000446202717E04069C043C0060CD454F86F
:101B5000301B6FF01000486144F810596777A57783
:101B6000206A2062257717E0FEF792FFA0EB0800BD
:101B7000B04208D83EB120684169C9434906E2D461
:101B80000020BDE8F08144F8305F6773A5732069D9
:101B900040F02000206125730120F2E770B5164661
:101BA0000D4604460DE02046FFF736FE08B1012041
:101BB00070BD681C05D0FEF76BFF801BA84207D8DC
:101BC00035B120684069C0430006ECD4002070BDE8
:101BD000002044F8300F20216173A073216941F087
:101BE000200121612073E2E770B504462DED108BD2
:101BF00082B0B0EE429AF0EE629AB0EE40FAF0EEA9
:101C000060FA90ED08EB51EC110B53EC1E2BFEF734
:101C1000E2FB41EC100B51EC190B53EC102BFEF7CF
:101C2000E0FB94ED061B53EC112BFEF733FB94ED18
:101C300010DB41EC1A0B53EC1D2B51EC190BFEF78A
:101C4000D0FB0E4646EC100B94ED0CCB054653EC46
:101C50001C2B51EC100BFEF7BEFB94ED0EBB53ECAE
:101C60001B2BFEF7B8FB94ED001B53EC112BFEF77A
:101C700011FB53EC192BFEF7B4FB94ED0A1B53EC4C
:101C8000112BFEF707FB46EC105B41EC180B53ECF5
:101C90001C2B51EC100BFEF7A1FB46EC105B41EC4A
:101CA0001C0B53EC1B2B51EC100BFEF797FB94ED28
:101CB000020B41EC1B0B53EC192B51EC100BFEF7F4
:101CC00090FB53EC1D2BFEF7E5FA41EC100B51ECA9
:101CD000180B8DED000B94ED040B53EC102BFEF75D
:101CE000D9FA41EC190B51EC180B53EC192BFEF7F8
:101CF000EAFB41EC1D0B53EC192B51EC1B0BFEF7CF
:101D0000E2FB41EC190B53EC1A2B51EC1F0BFEF7C5
:101D100062FB41EC1F0B51EC1D0B53EC1F2BFEF72C
:101D200060FB53EC1A2BFEF7B5FA41EC1A0B53EC9F
:101D30001F2B84ED06AB51EC190BFEF752FB53EC55
:101D40001E2BFEF7A7FAC4E9080153EC182B51EC3F
:101D50001D0BFEF746FB53EC182BFEF73FFBC4E9C7
:101D60000A0153EC1C2B51EC1D0BFEF73AFB53EC14
:101D70001C2BFEF733FBC4E90C0153EC182B51EC80
:101D8000190BFEF72EFB53EC1B2BFEF727FBC4E9C8
:101D90000E0153EC1C2B51EC190BFEF722FB9DEDB1
:101DA000000B53EC102BFEF719FBC4E9100102B035
:101DB000B0EE4A0AF0EE6A0ABDEC108B70BD2DE958
:101DC000F04186B08046012504A8CDE900056424D1
:101DD0002B467522D02102944046FEF723FF9DF842
:101DE0001000682803D0012006B0BDE8F08100276C
:101DF00003AE8DF80C700096CDE9015401236B22DF
:101E0000D0214046FFF70AF807208DF80C00009615
:101E1000CDE9015401231922D0214046FEF7FEFFEF
:101E20008DF80C700096CDE9015401231C22D021BD
:101E30004046FEF7F3FF8DF80C700096CDE9015493
:101E400001231B22D0214046FEF7E8FF0020CBE70C
:101E50002DE9F0470C462DED0C8B88B09FED9A9B39
:101E60009FED9BDB9FED9CBB9FED9DAB64230E2202
:101E700003A98DE80E0001233B22D021FEF7D2FEFC
:101E8000BDF80C0040BA00B22080BDF80E1049BA6F
:101E90000EB26680BDF8101049BA0DB2A580BDF82B
:101EA000121049BA0FFA81FABDF8141049BA0FB2EC
:101EB0002784BDF8161049BA09B261848946BDF875
:101EC000181049BA09B2A1848846FEF76BFB9FED52
:101ED000868B53EC182BFEF784FAC4E902013046D6
:101EE000FEF760FB53EC182BFEF77BFAC4E9040104
:101EF0002846FEF757FB9FED7E1B53EC112BFEF798
:101F0000E2FA00EE10AAB8EEC00A9FED7B1AC0EE0E
:101F1000010A9FED7A0AC4E90601384630EE800ACC
:101F200084ED100AFEF73EFB9FED758B53EC182BEA
:101F3000FEF7C9FAC4E90A014846FEF733FB53EC41
:101F4000182BFEF7C0FAC4E90C014046FEF72AFB45
:101F500053EC182BFEF7B7FAC4E90E01FEF798FD13
:101F6000694D2968401AFEF72EFB9FED681B53EC64
:101F7000112BFEF7A8FA41EC1C0BFEF789FD286037
:101F8000208810FB00F1A08810FB0010FEF70AFB70
:101F900041EC100B00F0DAFCB0EE408AF0EE608A03
:101FA00053EC192B51EC180BFEF71AFB13D0B4F9B4
:101FB0000200FEF7F7FA53EC182BFEF784FA41EC17
:101FC000100B00F04DFA53EC1D2B51EC100BFEF7EB
:101FD00008FA41EC190BB4F90400FEF7E3FA41ECFE
:101FE000180BB4F900004042FEF7DCFA41EC100B8C
:101FF000B0EE481AF0EE681A00F09EFB53EC1D2B71
:1020000051EC100BFEF7EDF941EC180B53EC1B2BC8
:10201000FEF7E6FA08D294ED140B53EC1A2B51ECB0
:10202000100BFEF7F5FA0FD353EC1A2B51EC180BEB
:10203000FEF7EEFA11D294ED140B53EC1B2B51EC7E
:10204000100BFEF7CDFA08D22F48503080ED068BEA
:1020500084ED148B94ED140B0FE02B4894ED0C1BC6
:10206000B0EE4C2AF0EE6C2AB0EE480AF0EE680AA8
:102070005030FFF7B9FD84ED140B00F05DFC53EC1C
:102080001A2B51EC100BFEF7C3FA07D294ED0A0B92
:1020900051EC100B81F00041C4E90A011A4894ED9B
:1020A0000C1BB0EE4C2AF0EE6C2AB0EE490AF0EEB2
:1020B000690A0830FFF798FD84ED120B08B0BDECFB
:1020C0000C8BBDE8F087000000000000000000005D
:1020D000F8C1631ADCA54C4000000000008056C027
:1020E0000000000000805640000000000000103F8B
:1020F000000000000029CC400000AA43B81E124294
:1021000000000000006060400000002000000000AF
:1021100000408F4030B587B014216846FEF7A8F81C
:1021200022480024016841F004010160016801F0C7
:1021300004010591016841F080010160016801F02E
:1021400080010591016841F001010160016801F021
:1021500001010591016841F0020101600068144D20
:1021600000F002000590002220212846FEF78AFC9C
:102170004FF4005000900F48CDE9010469460E4825
:10218000FEF792FB202000900120CDE90104694672
:1021900028460394FEF788FBA815CDE9000469469C
:1021A00028460294FEF780FB07B030BD303802406D
:1021B000000002400000211000080240FEE7FEE798
:1021C00070477047FEF7F6BE30B593B034216846CD
:1021D000FEF74EF814210DA8FEF74AF81E48002518
:1021E000016841F080510160006800F08050129059
:1021F0001A48016821F4404141F4804101600068BF
:10220000022400F44040129001200390102000941A
:1022100006940490CDE907504FF4A870099004206B
:10222000CDE90A0468460C94FFF756F808B172B677
:10223000FEE70DA90F2081E831004FF48050CDE971
:10224000100502210DA8FEF743FF002801D072B649
:10225000FEE713B030BD000040380240007000407F
:102260000248016841F470010160704788ED00E0A8
:1022700070B5044600680169E26821F440511143D9
:1022800001612169A068E26908436169114308435B
:102290002168CA6849F20C639A430243CA60206805
:1022A0004169A26921F440711143416131492068BB
:1022B000884202D03049884202D1FEF7B3FF01E0E4
:1022C000FEF7A0FFE2690023192164253226B2F54A
:1022D000004F626828D0A0FB0101930F9200FDF728
:1022E0008FFF0146B0FBF5F06FF01802504301EB91
:1022F000800006EB0010B0FBF5F000F0F002B1FB3F
:10230000F5F002EB0012B1FBF5F06FF01803584343
:1023100001EB800006EB0010B0FBF5F000F00F00C1
:1023200021681044886070BDA0FB010192185B41D8
:10233000FDF766FF0146B0FBF5F00201B1FBF5F0D9
:102340006FF01803584301EB800006EBC000B0FBB0
:10235000F5F000F0F80002EB4002B1FBF5F0584355
:1023600001EB800006EBC000B0FBF5F000F00700C9
:10237000D6E7000000100140001401402DE9F041B3
:10238000984617460E460446069D1DE0681C1BD065
:102390002DB1FEF77DFBA0EB0800A84214D9206800
:1023A000C16821F4D071C1602068416921F0010148
:1023B0004161202084F83D0084F83E00002084F82C
:1023C0003C000320BDE8F0812068006836EA000088
:1023D00004D00020B842D9D00020F3E70120F9E76B
:1023E000FEE700000FB4084B10B504A902AA039839
:1023F00000F062FC044602A9002000F0E0FF204645
:1024000010BC5DF814FB0000BF33000803B4019852
:102410004100009850EAC12018BF04204A0D18BF9F
:1024200040F0010040F2FF72B2EB515F08BF40F094
:102430000200012808BF052002B070470907090EF5
:10244000002804DB00F1E02080F80014704700F061
:102450000F0000F1E02080F8141D7047000000001C
:1024600070B59B482DED020B2DED068B079D25F0D9
:102470000044A04218DC9748844202DC0AD1069846
:1024800040B19DED060BBDEC068B02B0BDE870407F
:1024900000F015BB002DCCBF9FED8F0B9FED900B77
:1024A000BDEC068B02B070BD8F48A04215DD8F4891
:1024B000A042D8BF4FF0FF3458DD9DED060B51EC24
:1024C000100BFFF7A3FF042808BF00F00DFB9DEDE4
:1024D000060BBDEC068B02B070BD9DED060B51ECFA
:1024E000100B00F079FFCDE9060181489FED828B4A
:1024F000A0423CDD8248A0421FDD00249FED82AB5C
:102500009DED060B53EC1A2B51EC100BFDF7C2FEA0
:102510009DED060B41EC190B53EC1A2B51EC100BF3
:10252000FDF75FFF53EC182BFDF755FF53EC192B0C
:10253000FDF7C9FFCDE9060149E09DED060B012439
:1025400053EC182B51EC100BFDF7A4FE9DED060B80
:1025500041EC190B53EC182B51EC100BFDF73BFF22
:1025600053EC192BFDF7AFFFCDE906012FE06848CA
:10257000A0421FDD02249FED689B9DED060B53ECEE
:10258000192B51EC100BFDF72CFF53EC182BFDF71A
:1025900081FE9DED060B41EC180B53EC192B51EC11
:1025A000100BFDF718FF53EC182BFDF78CFFCDE94E
:1025B00006010CE09DED060B032453EC102B9FED60
:1025C000580B51EC100BFDF77EFFCDE906019DED98
:1025D000060B53EC102B51EC100BFDF702FF41ECF6
:1025E000180B53EC182BFDF7FCFE41EC190B4E4871
:1025F0000621B0EE490AF0EE690A784400F0E3F9EA
:1026000053EC182B51EC100BFDF7EBFE41EC180BC3
:102610004648B0EE490AF0EE690A0521784400F018
:10262000D2F953EC192B51EC100BFDF7DAFE41EC0B
:10263000100B51EC180B53EC102B002C0EDAFDF79D
:1026400029FE9DED061B53EC112BFDF7CAFE9DEDF7
:10265000061B53EC112BFDF7C1FE35E0FDF71AFE0A
:102660009DED061B53EC112BFDF7BBFE41EC100B4F
:102670002F48784400EBC40090ED001B51EC100B88
:1026800053EC112BFDF7A7FE9DED061B53EC112B10
:10269000FDF7A1FE41EC100B2648784400EBC40086
:1026A00090ED001B51EC100B53EC112BFDF796FE37
:1026B00041EC100B002DA2BFBDEC068B02B070BD2B
:1026C00051EC100B81F0004141EC100B01E70000D0
:1026D000000010440000F07F182D4454FB21F93F06
:1026E000182D4454FB21F9BF0000DC3F0000203EC0
:1026F0000000F33F00000000000000000000F03F79
:102700000000E63F00000000000000000000004064
:102710000080034000000000000000000000F83FBF
:10272000000000000000F0BF4A0F0000000F000092
:102730008A0E0000420E000070B56F4E2DED040BA6
:102740002DED048B82B0DDF824C0DDE907235C4267
:102750002CF000411C4341EAD474069D22F0004055
:10276000B44205D86C422C4340EAD474B4420BD92D
:102770009DED081B9DED060B02B0BDEC048B04B073
:10278000BDE8704000F0A5B9ACF14054A4F17F64FD
:102790001C430BD0022404EAAC7444EAD27405430F
:1027A0009FED578B9FED582B07D015E09DED060B45
:1027B00051EC100B00F008FE42E0002C11BF012C80
:1027C0009DED060B02B0BDEC048B04BF04B070BDE0
:1027D000022C38D0032C3BD00B439FED4D1B9FEDBB
:1027E0004E0B0AD0B14218D1B04209D121F080413C
:1027F00020F08040099107900FE0002A15DA10E0E0
:10280000474B7B44002C08BF93ED000B0DD0012CEF
:1028100010D0022C17D0032C1AD0B0421DD1002AA0
:1028200003DAB0EE410AF0EE610A02B0BDEC048BAF
:1028300004B070BD93ED000B51EC100B81F0004122
:1028400041EC100BF1E7B0EE480AF0EE680AECE755
:10285000B0EE420AF0EE620AE7E7401A00159FED7B
:10286000329B3C28C8BF8DED000B17DCBCF1000F7C
:10287000BCBF10F13C0F8DED009B0FDB9DED080BF5
:1028800053EC102B9DED060B51EC100BFDF71BFECE
:1028900000F0A2FD00F098FDCDE90001B4B1012CDB
:1028A00010D0022C9FED220B53EC102B9DED000B52
:1028B00051EC100B19D0FDF78EFD53EC182BFDF7E2
:1028C0008AFDBDE7019880F0004001909DED000B6E
:1028D00053EC192B51EC100BFDF782FE04BF0220C4
:1028E00000F022F99DED000B9FE7FDF774FD53EC1E
:1028F000182BFDF773FDA3E70000F07F0000000038
:10290000182D4454FB210940182D4454FB2109C0C3
:10291000182D4454FB21F9BF182D4454FB21F93FD5
:10292000720D000000000000000000000000000028
:10293000075C143326A6A13C2DED020B019820F074
:10294000004001909DED000B02B0704700B52DEDE9
:10295000048BB0EE409AF0EE609A83B051EC190B04
:10296000FDF712FF41EC180B18EE100A18EE901A42
:102970008DED008B002818BF0120084320F0004097
:10298000C0F17F6000F1E040C00F14D019EE101AC2
:1029900019EE900A8DED009B002918BF0121084314
:1029A00020F00040C0F17F6000F1E040C00F04BFA4
:1029B000012000F0B9F8B0EE480A03B0F0EE680A62
:1029C000BDEC048B00BD70B504462DED028B4D1E91
:1029D00000EBC500B0EE408AF0EE608A90ED000B8F
:1029E00035F0060017D053EC182B51EC100BFDF707
:1029F000F8FC41EC100B6D1E04EBC50090ED001BC4
:102A000051EC100B53EC112BFDF744FC41EC100B77
:102A100035F00600E7D1022D36D0042D1CD0062D4E
:102A20001CBFBDEC028B70BD53EC182B51EC100B8E
:102A3000FDF7D7FC94ED0A1B53EC112BFDF72AFC94
:102A400053EC182BFDF7CDFC94ED081B53EC112B28
:102A5000FDF720FC41EC100B53EC182B51EC100B44
:102A6000FDF7BFFC94ED061B53EC112BFDF712FC98
:102A700053EC182BFDF7B5FC94ED040B53EC102B25
:102A8000FDF708FC41EC100B53EC182B51EC100B2C
:102A9000FDF7A7FC94ED021B53EC112BFDF7FAFB9D
:102AA00053EC182BFDF79DFC94ED001B53EC112B00
:102AB000FDF7F0FBBDEC028B41EC100B70BD10B5C7
:102AC00053EC102B51EC100BFDF7E4FB41EC100B19
:102AD00010BD10B553EC112B51EC100BFDF7DAFBC8
:102AE00041EC100B10BD00009FED050B10B553EC31
:102AF000102B51EC100BFDF774FC41EC100B10BDCA
:102B0000000000000000001002E008C8121F08C109
:102B1000002AFAD170477047002001E001C1121F5E
:102B2000002AFBD17047000001490860704700008F
:102B3000A80000202DE9FF5F82B00021DDE904300C
:102B4000020DDDF840B0034318D044F61050A2F255
:102B5000FF3242431514119801281FD0A5EB0B003A
:102B6000401C5FEA000A4FF000064E4FDFF8389134
:102B7000B046504615D5CAF1000413E0119801245F
:102B80004AA3012801D16FEA0B010298119AC0E90A
:102B90000031C0E9024206B0BDE8F09FCBF1000071
:102BA000DFE704460021404A491842EB0450CDE9D2
:102BB000001012E0E00707D032463B464046494647
:102BC000FDF70FFC8046894632463B4610461946C3
:102BD000FDF707FC06460F466410002CEAD1DDE93C
:102BE0000401DDE90023BAF1000F06DAFDF7F9FB75
:102BF00042464B46FDF7F5FB05E0FDF764FC424617
:102C00004B46FDF760FC04460E460022284BFDF7BC
:102C1000FFFC03D84FF0FF30014607E00022254BB0
:102C200020463146FDF736FBFDF7FFFD102409E095
:102C3000002C0ADB0A220023FDF7E2FA039B303264
:102C40001A55641E50EA0102F2D1641C039AC4F1C1
:102C500011031444119A012A03D0012208430DD113
:102C60000AE0084304D000204FF0110B119072E7E6
:102C7000A3EB0B056D1E0DE05B4504DD4FF000027C
:102C800005F1010504E003DA4FF00002A5F10105AA
:102C9000002AECD002981199C0E90231C0E9004540
:102CA00079E70000000014400000F03F3000000011
:102CB0000000F0430000E03F2DE9FF4F95B09A4639
:102CC000884606460025EEE1252877D100242746D0
:102CD000F94A0121039400E0044316F8013F203B28
:102CE00001FA03F01042F7D130782A2811D06FF0A2
:102CF0002F033078A0F13002092A16D8039A44F045
:102D0000020402EB820203EB42021044761C0390A1
:102D1000EFE758F8042B0392002A03DA504244F4F8
:102D20000054039044F00204761C30782E2816D10B
:102D300016F8010F44F004042A280DD06FF02F027A
:102D40003078A0F13003092B09D807EB870302EB99
:102D50004303C718761CF3E758F8047B761C3078D9
:102D60006C280FD006DC4C2817D068280DD06A28B4
:102D700014D104E0742810D07A280FD10DE044F467
:102D800000140AE044F4801401E044F44014727822
:102D9000824202D104F58014761C761C30786628B5
:102DA0000BD013DC582877D009DC002875D04528D3
:102DB000F6D04628F4D047281AD193E118E06328CA
:102DC00035D0642879D0652812D18BE1702873D072
:102DD00008DC6728F1D069286FD06E280DD06F28E5
:102DE00006D1ACE073282CD0752874D0782853D045
:102DF0005246179990476D1C54E1C4F302500228C3
:102E000009D003280DD0D8F8001004280DD00D608B
:102E100008F1040846E1D8F80010EA17C1E90052A9
:102E2000F6E7D8F800100D80F2E70D70F0E718F81B
:102E3000041B8DF8001000208DF80100EB460120E6
:102E400003E058F804BB4FF0FF3061074FF000017A
:102E500002D40DE009F101018946B9420FDA81453A
:102E6000F8DB1BF809100029F4D108E009F1010191
:102E700089468142FADB1BF809100029F6D1039834
:102E80005346A0EB090721463846179A00F080FA0E
:102E9000284400EB090507E044E008E10DE01BF8D9
:102EA000010B524617999047B9F10109F7D25346E1
:102EB00021463846179AF2E039E00A21C4F302525B
:102EC0004FF0000B0091022A06D058F8040BC117EE
:102ED000032A09D00AE023E008F1070020F00702E6
:102EE000F2E80201904605E000B2C117042A01D1C0
:102EF00040B2C117002906DA0A460021404261EBC0
:102F000002012D2202E0220504D52B228DF8042097
:102F1000012203E0E20701D02022F7E7914657E0C3
:102F20000A2100E010214FF0000B00910BE010216E
:102F30004FF0000B44F004040827009103E0082040
:102F40004FF0000B0090C4F30252022A05D058F84B
:102F5000040B0021032A08D008E008F1070020F044
:102F60000702F2E80201904603E080B2042A00D191
:102F7000C0B24FF0000922072AD53278702A07D054
:102F8000DDF800C08CF0100C5CEA0B0C05D00EE0F4
:102F900040228DF80420012208E050EA010306D007
:102FA00030238DF804308DF8052002229146009BD5
:102FB00083F0080353EA0B030AD150EA010201D15E
:102FC000620705D530228DF804204FF001097F1EDD
:102FD0003278582A04D039A20C920CAA02920BE043
:102FE0003BA2F9E75B46009AFDF70AF90C9B9B5C54
:102FF000029A521E0292137050EA0102F2D1029814
:1030000004A9081A00F1200B600702D524F48034CB
:1030100000E001275F4502DDA7EB0B0000E0002088
:1030200000EB0B01009003984944401A0390E00321
:1030300006D453462146179A039800F0A9F905448F
:10304000002706E001A85246C05D179990476D1C05
:103050007F1C4F45F6DBE0030CD553462146179AFB
:10306000039800F095F9054404E030205246179982
:1030700090476D1C0099481E00900029F5DC08E07F
:103080000298029952460078491C0291179990477C
:103090006D1CBBF10001ABF1010BF1DC5BE100F059
:1030A00065F90544761C307800287FF40DAE19B020
:1030B0002846BDE8F08F0000092801003031323386
:1030C0003435363738396162636465660000000064
:1030D000303132333435363738394142434445464E
:1030E00000000000600700D4062708F1070020F068
:1030F0000700F0E80223804603F0004C5FEA0C0072
:1031000001D097A009E0200501D596A005E0E007D1
:1031100001D095A001E0AFF24C001390307823F07D
:10312000004365280CD006DC452809D046281DD070
:1031300047287FD13BE0662818D067287AD136E04F
:103140000021112F01DB112000E0781CCDE90001E6
:1031500004A90CA8FFF7EEFCDDE90D010C9A4FF075
:10316000000B07F10109109200914EE04FF0004072
:103170000097CDE9011004A90CA8FFF7DBFCDDE9FD
:103180000D020C9B0F994FF0000B9146109300928B
:1031900011B9791C00EB0109B7EB090003D4C0F1A8
:1031A000FF3B07F10109A9EB0700019042E0012F65
:1031B00000DA01270021112F01DD112000E038463F
:1031C000CDE9000104A90CA8FFF7B4FCDDE90D016D
:1031D0000C9A00914FF0000BB946109221070FD4C2
:1031E000009A4A4503DA914601E0A9F10109B9F1D3
:1031F000010F05DD109AA9F10101515C3029F4D0CD
:10320000B84202DA10F1040F03DA0121CDE901100E
:1032100010E0002803DC8344A9EB000102E0411C1C
:10322000494500DD8946A0EB0B00401C01904FF0A2
:1032300000400290200705D40198484502DB4FF07A
:10324000FF30019000208DF84B0002980DF14B07E4
:10325000B0F1004F25D002200C902B200D90029849
:1032600000280CDA404202902D200D9007E00A2140
:103270000298FDF7E5F93031029007F8011D0C992D
:10328000481E0C900029F2DC02980028EFD1791E2C
:103290000D980870307800F0200040F0450007F8E5
:1032A000020D11A8C01BC01D02901398007800B138
:1032B000012000EB0901019801EBE0710298014443
:1032C0000398401A401E0390E00306D4534621465B
:1032D000179A039800F05CF805441398007818B129
:1032E0005246179990476D1CE00323D5534621465B
:1032F000179A039800F04CF805441BE0BBF1000F4F
:1033000007DB0098584504DD1098179910F80B005A
:1033100001E0179930205246904701980BF1010BBC
:10332000401E05F10105019004D12E205246179947
:1033300090476D1CB9F10001A9F10109DEDC05E03F
:1033400017F8010B5246179990476D1C0299481EB9
:1033500002900029F4DC53462146179A03989EE612
:103360002D0000002B000000200000002DE9F0419E
:10337000044600251E461746880404D405E0394655
:103380002020B0476D1C641EF9D52846BDE8F081A9
:103390002DE9F041044600251E469046C80301D59C
:1033A000302700E02027880404D505E04146384650
:1033B000B0476D1C641EF9D52846BDE8F0810A6847
:1033C000531C0B601070704710B541EC100BFFF7E9
:1033D00047F851EC100B10BD82B0CDE9000121F08F
:1033E000004001909DED000B02B051EC100B7047B6
:1033F00094B0FDF7E7FDFEF7E7FEFEF78BFE2B48E6
:103400002949002401604FF4E131C0E901140C2185
:10341000C460C0E904418461C461FEF73DF908B1AC
:1034200072B6FEE721482249543801602149C0E9BB
:1034300001144FF48041C0E9034144618461C461D7
:103440000462FDF72BFB08B172B6FEE7174854384B
:10345000FEF7B5FC0128F9D0144C4FF0FF35443489
:1034600012494431A1F19800FEF7F2FC6420FDF707
:1034700009FA94ED0E0B10A18DED020B94ED0C0BDF
:1034800004A88DED000B94ED0A0B53EC102BFEF706
:10349000A9FF04A8FCF7F7FE82B22B4604A9034853
:1034A000FEF760F9DCE70000004400400401002062
:1034B00000540040801A0600252E32662C252E323C
:1034C000662C252E32660A00000000000000000075
:1034D00001020304060708090000000001020304BA
:1034E0004FBB610567ACDD3F182D4454FB21E93F1C
:1034F0009BF681D20B73EF3F182D4454FB21F93F0B
:10350000E2652F227F2B7A3C075C143326A6813C90
:10351000BDCBF07A8807703C075C143326A6913C3B
:10352000C4EB98999999C9BF711623FEC671BCBFA7
:103530006D9A74AFF2B0B3BF9AFDDE522DDEADBF0F
:103540002F6C6A2C44B4A2BF0D5555555555D53F27
:10355000FF8300922449C23F6E204CC5CD45B73F42
:10356000513DD0A0660DB13FEB0D76244B7BA93FBA
:1035700011DA22E33AAD903F0000000000000000A5
:10358000A035000800000020AC000000082B000857
:103590004C360008AC000020F4040000182B000892
:1035A0000000000000000000000000E04D62503FFD
:1035B000000000C07493683F000000E051B89E3FD7
:1035C00000000000000000000000000000000000FB
:1035D00000000000000000000000000000000000EB
:1035E00000000000000000000000000000000000DB
:1035F000000000E04D62503F000000C07493683F3F
:10360000000000E051B89E3F0000000000000000F4
:1036100000000000000000000000000000000000AA
:10362000000000000000000000000000000000009A
:103630000000000000000000010000001000000079
:0C364000000000000024F4000000000066
:04000005080001C529
:00000001FF
